:020000020000FC
:100000000201000230D6000000FF00024B0D7E030B
:100010007F13220233B62222908B62E04401F02249
:10002000A224220248620106AB0102010101010182
:100030000201000000000000000000060100C3A54E
:10004000C3A50601000655AA6699464532508D01A2
:10005000039F0105AB107F9D7C1F117F9D7D3F128B
:100060007F9D7E7F147F9D211F157F9D223F20BF96
:1000700025491F21BF25433F21BF258C3F30C2208A
:10008000111F31C220123F32C220137F40EF3011C6
:100090001F41EF30123F42EF30137F43EF3014FF28
:1000A00044EF4014FF501C31111F511C31123F60AE
:1000B0003730111F613730123F623730137F718C38
:1000C00030123F728C30137F738C3014FF80C84025
:1000D000111F81C840123F82C840137F90D5301154
:1000E0001F91D530123F92D530137FA0A131111F3F
:1000F000A1A131123FA2A131137F010105C2242227
:1001000090F04C7460F090F0507490F0908B3E74CE
:10011000FEF0908B3F74A1F0908B457471F0E590E8
:1001200054E0F59090F04D7422F078FFE4F6D8FD9D
:1001300090A0007F007E13E4F0A3DFFCDEFA75815F
:1001400059024525E5905407C403C0E0744EC0E051
:10015000C082C083024E00E5905407C403C0E0741F
:100160004EC0E0C082C083024E08E5905407C4032D
:10017000C0E0744EC0E0C082C083024E10E59054CF
:1001800007C403C0E0744EC0E0C082C083024E18B2
:10019000E5905407C403C0E0744EC0E0C082C08341
:1001A000024E20E5905407C403C0E0744EC0E0C086
:1001B00082C083024E28E5905407C403C0E0744E09
:1001C000C0E0C082C083024E30E5905407C403C033
:1001D000E0744EC0E0C082C083024E38EFC403908A
:1001E0004E007390CEBE02014490D7D802014490D5
:1001F000BAAE02014490D58602014490AF8D02014F
:100200004490D48202014490E3CD02016A90DF1A47
:1002100002016A908DB802014490E76602016A907B
:10022000E8D902014490D76102017D90EA0A0201F7
:10023000C990E3A60201B690D0B502019090E34CBC
:100240000201B690E3E10201B690E1AB0201A39096
:10025000EEAA02017D90E1A80201A390E3EC020165
:10026000B690CD270201B690E3C90201B690E7B877
:1002700002019090E06E0201A390E3DB0201B690D0
:10028000EC1A02017D90EC3102017D90DF33020116
:10029000A390DF4A0201A390E1B90201B690E1D038
:1002A0000201B690E05B0201A390E0480201A39036
:1002B000E0350201A390E0220201A390E00F0201C9
:1002C000A390DFFC0201A390DFE90201A390DFD637
:1002D0000201A390DFC30201A390DFB00201A3904B
:1002E000DF9D0201A390DF8A0201A390DF77020164
:1002F000A390C2DA0201B690CF970201B690D41D46
:1003000002017D90E20F02014490EE680201C99063
:10031000DCFA02014490E80602019090E0B002018C
:10032000A390DBD40201A390E1450201A390E0DE9B
:100330000201A390E0E80201A390DEAC0201A390C9
:10034000E1960201A390E19C0201A390E1A20201C7
:10035000A390E1720201A390E1780201A390E17EF3
:100360000201A390E1840201A390E18A0201A3901B
:10037000E1900201A390E1600201A390E166020115
:10038000A390E16C0201A390E11A0201A390E3E6BD
:100390000201B690E0FC0201A390E0F20201A390FA
:1003A000EDDD02017D90EDE802017D90EA8602011B
:1003B0007D90DB7B02017D90EE6502017D90EC0378
:1003C00002017D904DFE02017D90DA820201A39030
:1003D000AF4502017D90E74702019090E0F70201EE
:1003E0007D90D0E102019090DE610201A390E135A1
:1003F0000201A390E0BD0201A390E1060201A390D7
:10040000D9BC0201A390E0920201A390DE2F020169
:10041000A390DF610201A390E14C0201A390E1539C
:100420000201A390E12C0201A390DDB80201A39088
:10043000DC3E0201A390D3290201B690D54002010F
:10044000B690BEB70201B690ED1202017D90001782
:1004500002017D90D7530201A390DDEB02017D9054
:10046000CCA602017D90DD630201A390DF1C020196
:10047000A390DEE80201A390DABD0201B690EAAAD9
:1004800002017D90EE3E02017D90DAF90201B69004
:10049000E97A02017D90E0810201A390EE960201CB
:1004A0007D90E95002017D90EE5E02017D90BFB328
:1004B00002019090D4CF02017D90E6D402017D909C
:1004C000E0A20201A390E0C80201A390E0D30201E0
:1004D000A390CF7702017D90EDBB02017D90EC48A7
:1004E00002017D90DB5502019090DC510201B69033
:1004F000DE9B0201C990E3AE0201B690C2A20201E6
:10050000C990DDDE0201B690DBE40201B6908A30CC
:100510000201C990C6310201C990CFBB0201C99046
:10052000D2B80201B690E67902019090D56402013A
:100530009090BA410201C990C7D00201C990D5FB81
:100540000201C990DB2F0201C990A8E60201C990FF
:10055000BFAE0201C9908E0E0201C990D6D702012A
:10056000C990DE510201C990BCAC02019090E6CA6C
:100570000201C990AEE80201C990BD9B0201C99079
:10058000D3BC0201C990D4320201C990D4A802019F
:10059000C990D7A80201C990EEAF0201C990DE064A
:1005A0000201C990E44F0201C990D289020144902E
:1005B000DA1C0201C990DB710201B690E19F0201D1
:1005C0004490D74F0201B690E57102014490DB35AB
:1005D0000201B690D28102019090E75B02019090F7
:1005E000C48602019090E73D02019090E47F0201F1
:1005F0009090D42102019090C68D02019090B23566
:1006000002019090D1EC02014490E0E90201449093
:10061000A2080201C990E7FA02014490DD2002011C
:10062000C990E84202014490E91D0201C990E93BEA
:100630000201C990DEE50201C990ED4202017D9000
:10064000DD6202015790E33F0201B690CDD2020174
:100650009090B67E02019090E4A102019090BDD6E8
:1006600002019090E55E02014490E1E5020157909D
:10067000E22802015790E19F02015790E4580201DD
:100680005790E46102015790E46A02015790DA2F13
:1006900002014490E85D02014490E8540201449054
:1006A000D60502014490EEBD0201C990E7BE0201E9
:1006B0009090E4B202019090D1E002019090E17C30
:1006C00002014490E26A02014490DDC602014490B6
:1006D000C41702014490D62302017D908655020181
:1006E0004490E5AA02014490A62102014490E4CF7F
:1006F00002014490E6E6020144909EB80201449053
:10070000E75902014490905902014490DB13020121
:100710004490E97802014490E97E02014490988077
:1007200002014490E72D02014490E7430201449006
:10073000E9B302014490E04302019090DC8502019C
:100740005790DDF402019090E28302017D90E02158
:1007500002015790EB1102017D90E64F0201449097
:10076000E36C02014490E98402014490DB39020108
:100770009090BF4B02019090C83002019090E38AA4
:100780000201B690E20902019090ECDC02017D903A
:10079000ED830201C990E48F02014490E91902013E
:1007A0004490CF0D0201B690D64002014490E35F21
:1007B00002015790EBD502017D90E91102014490AE
:1007C000B1A302014490D6780201A390E156020140
:1007D0005790E8C902014490E8D102014490DE87B5
:1007E0000201A390E80C02014490E8150201449034
:1007F000EDD90201C990EDE30201C990EDF30201C8
:100800007D90EE1102017D90EE0702017D90EDFDDD
:1008100002017D90EE900201C990C50D02019090F9
:10082000E4C602015790D4760201B690B57D02016C
:100830009090001602015790DD120201B690E7C7B2
:1008400002014490BB4602014490C6D20201B69018
:10085000C25502014490E4F902014490B9760201C4
:100860004490B46C02019090DB3E0201A3907F0D96
:1008700002014490C1E002014490E7B102014490BA
:10088000E6BF02014490E83002014490E8390201D9
:100890004490C76202014490CBDA02019090E81BB9
:1008A00002019090E49002019090C58F0201909017
:1008B000DA3402019090DF2602014490DE8F0201BB
:1008C000B690C99702017D90EE8A02017D90EBA45B
:1008D00002017D90D36902017D90BD8802017D9067
:1008E000AB2002014490EB3102017D90D1EA02017C
:1008F0007D90E2F40201C990EE2402017D90EE2D7C
:1009000002017D90ED6002017D90ED6E02017D900F
:10091000ED2202017D90ED7C02017D90C8F3020181
:10092000B690DCB50201B690DD670201B690E33007
:100930000201B690DD3E0201B690E3010201B690DD
:10094000E44C02014490EA3C02017D90DD03020187
:100950007D90EEA402017D90EE1B02017D90EEA73A
:1009600002017D90E7DC02016A90CBA702017D9035
:10097000EE9C02017D90D3F902014490EEA00201A9
:100980007D90EE600201C990CA1902014490D6F030
:1009900002014490E9BC02014490E4A502014490A4
:1009A000BE9602014490E15A0201A390AED7020123
:1009B0004490BF8102017D90B29302017D90E2FCE0
:1009C000020144906E8F02014490B654020144909B
:1009D000BC7502014490D6C302017D90E9F1020189
:1009E0007D90C0F502014490D79E02014490E43509
:1009F00002014490E73E02017D90DF0D0201579015
:100A0000DC9802016A90DDBA0201C990CD81020131
:100A1000C990E32C02019090D18D02019090E318CF
:100A200002019090DA5102019090CCDB020190908B
:100A3000CD7002019090CCA902019090E5F20201E4
:100A40009090D20902019090D65002019090B7E0A8
:100A50000201C990B1B20201C990DB8D02019090F0
:100A6000DBA902019090E2B50201C990E5BB020149
:100A7000C990EA900201C990E79A0201C990EBB6C9
:100A80000201C990E8A10201C990E77F020190909C
:100A9000C91602019090D46902019090D48D020190
:100AA0009090C70702019090C7F502019090C94E3F
:100AB00002019090C74302019090E6960201909047
:100AC000E05A02019090C5CF02019090C54E0201FC
:100AD0009090E6A402019090DE7202019090C4CA48
:100AE00002019090CA2C02019090DE8B020190903E
:100AF000DEA402019090E07102019090E088020172
:100B00009090DEBD02019090DED602019090DF9BB6
:100B100002019090D76E02019090E6B2020190908F
:100B2000E0B602019090D2F502019090D4B102019A
:100B30009090CE0202019090DEEF02019090CE32B2
:100B400002019090D5ED02019090D587020190901E
:100B5000D60E02019090E6C002019090DF080201DB
:100B60009090D31B02019090D4D502019090CE6159
:100B700002019090CC0E02019090E6CE020190907E
:100B8000E18502019090CA6202019090CA98020128
:100B90009090E0CD02019090E0E402019090E0FBA3
:100BA00002019090E11202019090D54102019090D3
:100BB000DC3502019090D5CB02019090E157020103
:100BC0009090E34002019090CF1B02019090DD7263
:100BD00002019090DD8C02019090E4C3020190909C
:100BE000EB9F0201C990E8820201C990E35402011F
:100BF0009090EA760201C990E7780201C990E36813
:100C000002019090E9770201C990E60D0201C990B6
:100C1000D67002019090E23302019090DA6E0201E8
:100C20009090DA8B02019090DCF002019090D690C7
:100C300002019090E24802019090D730020190901A
:100C4000D74F02019090DD0A02019090C3F6020195
:100C50009090E37C02019090EAAA0201C990E7BC5F
:100C60000201C990E39002019090EAC40201C99088
:100C7000E7DE0201C990E43802019090E7510201D9
:100C80009090E60102019090E61002019090E09FA2
:100C900002019090E5D202019090DDA602019090B1
:100CA000DAA802019090DD2402019090D3B30201F2
:100CB0009090DFB302019090D05D02019090D089B6
:100CC00002019090CDA102019090CC42020190903F
:100CD000D78D02019090B76F02019090CACE0201A9
:100CE0009090CB0402019090DD3E02019090DFCB0A
:100CF00002019090E3690201C990E6A60201C99041
:100D0000CB3A02019090E3CB02019090CD0D02010D
:100D10009090C9F502019090C8A402019090D9DB8F
:100D200002019090E25D02019090D10C020190903E
:100D3000D13702019090D5A902019090E272020190
:100D40009090E4D402019090E4E502019090E3DEFB
:100D500002019090DBC502019090E2870201909021
:100D6000DAC502019090DAE202019090DD580201AA
:100D70009090E29C02019090E58A0201C990E5E41E
:100D80000201C990E44A02019090E5E202019090CC
:100D9000E4F602019090E50702019090E21E020144
:100DA0009090C8DD02019090E2B102019090D7AC22
:100DB00002019090D7CB02019090C9BE02019090A1
:100DC000E51802019090C64E02019090DDC002012C
:100DD0009090DDDA02019090D36702019090E16E6D
:100DE00002019090E52902019090D6B00201909006
:100DF000CF4902019090CF7702019090E53A02012D
:100E00009090D6D002019090CFA502019090CFD3C0
:100E100002019090E54B02019090D6F00201909073
:100E2000D00102019090D02F02019090E61F0201A4
:100E30009090E62E02019090E55C02019090E56DA5
:100E400002019090E3F002019090E57E0201909003
:100E5000D71002019090E12902019090E140020137
:100E60009090E3A402019090E2C602019090E58F79
:100E700002019090E5A002019090E402020190909E
:100E8000E2DB02019090E45C02019090C9860201CD
:100E90009090E63D02019090E64C02019090E5B101
:100EA00002019090E6F802019090E6DC0201909039
:100EB000E6EA02019090E19B02019090DC6B020156
:100EC0009090E80902019090E80C02019090DC50AB
:100ED00002019090DC8602019090E80F0201909050
:100EE000E81202019090E81502019090E8180201C2
:100EF0009090D3D802019090CE9002019090DFE3C1
:100F000002019090DFFB02019090DCD602019090EC
:100F1000DBE102019090D9BC02019090D25902010C
:100F20009090DCBC02019090DAFF02019090D62FE5
:100F300002019090E65B02019090E66A02019090B7
:100F4000D44502019090C01802019090E1B10201D5
:100F50009090BB6602019090BC0902019090E70559
:100F600002019090D4F902019090D9F90201909079
:100F7000D38D02019090D2C90201C990E7AB020162
:100F80009090E73202019090DF2102019090E1C73A
:100F900002019090DF3A02019090E1DD0201909011
:100FA000D16202019090E1F302019090E7A3020167
:100FB0009090E7D002019090E7C402019090E7CAB8
:100FC00002019090E7D602019090E7DC0201909038
:100FD000E7E202019090E7E802019090E800020148
:100FE0009090E7F402019090E7FA02019090E8C037
:100FF0000201C990E8FE0201C990E8DF0201C99030
:10100000DBFD02019090DC1902019090D51D0201D8
:101010009090E78802019090E79102019090CEA213
:101020000201C990EB270201C990EB3F0201C99070
:10103000EB570201C990EB6F0201C990E722020150
:101040004490EEF80201C990EADE0201C990C9BBE2
:1010500002014490ED480201C990ED570201C99088
:10106000C1BA0201C990E82F02016A90E823020187
:101070006A90E2760201C990769302014490BD9392
:1010800002014490E9D10201C990ABF40201C99078
:10109000DE700201B690E83B02016A90E847020167
:1010A0006A90E2CC0201B6904DFE0201C990E32F96
:1010B0000201C990B2FA0201C990AA990201B69040
:1010C0009A1E0201C990E5A602017D90DC8C020106
:1010D0007D90D57C02017D90CC570201C990D7410B
:1010E0000201C99091820201C990DD6D0201C9908F
:1010F000DF770201C990DFBF0201C990DF2E020134
:10110000C990DB880201C990CB210201C990E68118
:101110000201C990DC810201C990E3A30201C990D8
:10112000BC8D0201C99000160201C990D58202014E
:101130005790A7590201C990BC7402015790AD7431
:101140000201C990B4370201C990B9110201C990D6
:10115000E9590201C990CFC202015790C389020127
:10116000C990B05C0201C990EECB0201C990EED1EA
:101170000201C990EED70201C990EC5A0201C99050
:10118000EB870201C990EC920201C990EC6D02015B
:10119000C990ED900201C990ED9D0201C990EEDD6C
:1011A0000201C990EEE30201C990EEEE0201C9907E
:1011B000EDF70201C990EDB60201C990EDC202013E
:1011C000C990ED750201C990E9950201C990E9B392
:1011D0000201C9904DFF0201C990E2AD0201579092
:1011E000C93F0201C990D7C902015790BEA70201A9
:1011F000C990C59E02015790EEF30201C990ECA47C
:101200000201C990EE3C0201C990E1C20201449082
:10121000DCD20201C990E0070201C990EE4502014B
:10122000C990E8420201C990E8620201C990EE4EFD
:101230000201C990EC0B0201C990ED090201C990AD
:10124000EEB60201C990ECB60201C990E4BC0201FD
:10125000C990E4F00201C990EE010201C990EE3399
:101260000201C990EE0B0201C990EE150201C9906E
:10127000ECE90201C990EEC40201C990ED19020126
:10128000C990ED290201C990EE1F0201C990EE2913
:101290000201C990EE570201C990ECF90201C99010
:1012A000EC1F0201C990EC330201C990EEE9020182
:1012B000C990D0430201C990EA250201C990E6ED28
:1012C0000201C990EA400201C990E7100201C990E9
:1012D000EA5B0201C990E7330201C990DAF3020127
:1012E0005790E0C102015790CBC00201C990B6AA45
:1012F0000201C990CE0D02015790D3450201C99059
:10130000D14B0201C990E0970201C990E0DD0201D2
:10131000C990E1230201C990DBDE0201C990E65CBD
:101320000201C990D23B0201B690D4080201B690E6
:10133000CDDA0201B690E3730201B690BA61020100
:10134000B690BC8E0201B690E9EE0201C990B5726A
:101350000201C990E1AE0201C990EBE20201C9901D
:10136000DECC0201A390D2AF02015790DA7B0201DA
:10137000C990D0CA0201C990E2340201C990E1F2D9
:101380000201C990C8960201C990C4510201B690E9
:10139000CA810201C99097DD0201C990C62B0201E2
:1013A0004490E15902014490EE3602017D90EDD265
:1013B00002017D90D7000201B690D9FD0201B690DE
:1013C000C5C102014490DF3F02017D90EB51020153
:1013D0007D90E83702017D90E51C02017D90ED01D2
:1013E00002017D90ED5102017D90E8F802017D90AF
:1013F000EA6102017D907B0402014490E8680201E9
:101400007D90CCFF02014490EBBD02017D90EE4E39
:1014100002017D90DCC702014490D9BC02014490D6
:10142000D2CF02019090CEED02019090B3AD0201B7
:101430004490B35102019090C25802019090ACF6D2
:1014400002019090D1B702019090DF530201909079
:10145000DF6B02019090DF8302019090BEE10201F8
:101460009090CD3F02019090CEBF02019090DE0E91
:1014700002019090DE2702019090DE4002019090E0
:10148000DE5902019090D7EA02019090DA1702012A
:101490009090E68802019090EB0F0201C990CE1265
:1014A0000201C990DC300201C990E1230201A3903E
:1014B000D2B402017D90E39D0201B690E394020153
:1014C000B690E79A02019090E47302015790E76F9B
:1014D00002014490E76402014490DA6202015790ED
:1014E000C77F02019090E37F0201B690C35B0201C7
:1014F0009090E2E102015790D7E502015790D49E07
:1015000002015790C3AA02019090D3B102015790F3
:10151000DB1C02019090CC5302015790E072020153
:101520005790DEA702015790D13A02015790C10FA0
:1015300002015790C44002019090E02B020190906C
:10154000E38602014490E3BD0201B690E3C30201C9
:10155000B690D7D90201B690D1B60201B690C9E4CF
:101560000201B690D4DE0201B690DDB70201B6905A
:10157000E7B20201909095CB02019090C30702015F
:101580009090C6CA02019090E01302019090D2A8F8
:1015900002019090AA6E020190909ABF0201909071
:1015A000901102019090EB7002017D90EAF002012F
:1015B0007D90E5C202019090C69302014402197E1B
:1015C000E86480F8E933E83360110460F0ED33EC4F
:1015D000337009E8FCE9FDEAFEEBFF220460DED38C
:1015E000EB9FEA9EE99DE8C2E78CF0C2F795F040D8
:1015F0000CE8CCF8E9CDF9EACEFAEBCFFB121949A9
:1016000085D0F05804700320D5B3E8047007500269
:10161000B2D502198892D5EC0460F7E4CCC0E0C3DF
:1016200098F8603B94186008400DD0E0FB02196008
:10163000E4FBFAC9FC8028E830E406E4C9FBE4CA0C
:10164000FCE830E305E4C9CACBFCE854076010F8B5
:10165000C3E913F9EA13FAEB13FBEC13FCD8F130EE
:10166000F52FC3E49CFCEF9BFFEE9AFEED99FDD0B5
:10167000E0FBEF4E4D4C701222DB03021985EC2C7F
:10168000FCEF33FFEE33FEED33FDED30E7EB0219F7
:1016900060EF2BFFEE3AFEED39FDD0E0FB50130B6F
:1016A000BB0003021988ED13FDEE13FEEF13FFECF0
:1016B00013FC021960EC4D6011E8497017ED33EC32
:1016C0003304600DE4FCFFFEFD22E933E8330470CF
:1016D000F802197E12194958046009E4CC2481509B
:1016E00006285009021988284003021985C0E0EB3A
:1016F0004A7044B98006D0E0FB021974EF4E701CAA
:10170000BD8008EBFFEAFEE9FD80EBE98DF0A4FE69
:10171000E5F002179EE9CDF9EAFEEBFFEF89F0A4B0
:10172000FCE5F0CE89F0A42EFFE435F0CD89F0A4DD
:101730002DFEE435F08067EF4E7005BD80D780C385
:10174000EF8BF0A4ACF0EE8BF0A42CFCE435F0F8B9
:10175000EF8AF0A42CE5F038FCE433CB8DF0A42C18
:10176000FCE5F03BF8EE8AF0A42CFCE5F038F8E458
:1017700033CF89F0A42CFCE5F038CF3400CE89F0CB
:10178000A42FFFE5F03EFEE433C98DF0A42EFEE564
:10179000F039CD8AF0A42FFFE5F03EFEE43DFD33A5
:1017A000D0E0FB50070BBB000F021988EC2CFCEFBC
:1017B00033FFEE33FEED33FD021960021988EC5D54
:1017C000046005E85904700302197E12194958048F
:1017D00060F6EC4860F2EC7004FDFEFF22C860DBAE
:1017E0002481C85009C39860025006021985985098
:1017F000CAF582E9294B4A7005AB8202197475F06B
:10180000007C1A7880C3EF9BEE9AED99400DC3EFF0
:101810009BFFEE9AFEED99FDE842F0DC23ACF0D0A0
:10182000E0FFD0E0FED0E0FDAB8220E7101BEB60D4
:10183000BAEC2CFCEF33FFEE33FEED33FD02196002
:10184000E803F830E705C0F075F000EF2FFFEE3346
:10185000FEED33FD40B830E7C280AA74F8CC648056
:10186000CCC86480C8F58204604FC3EB9FF5F0EAF2
:101870009E42F0E99D42F0E89C45F0603C501DE539
:10188000825FFFE582D313CB5BCBF42B5582FB50F9
:10189000280ABA002409B9002008801DE5825BFBF4
:1018A000E582D313CF5FCFF4C3132F5582FF5009C6
:1018B0000EBE00050DBD00010CC3EB9FF5F0EA9EC6
:1018C00042F0E99D42F0E89C45F06007CC4820E7F3
:1018D00001B3EC2275F020800E75F010800575F0D4
:1018E000087D007E007F003392D530D503121F6C37
:1018F000EC334010EF33FFEE33FEED33FDEC33FC01
:10190000D5F0ED22E5F0247EA2D513CC92E7CDCE22
:10191000FF22EDD2E7CD33EC3392D524814006E4AB
:10192000FFFEFDFC22FCE4CFCECDCC24E0501174B0
:10193000FF80EDC3CC13CCCD13CDCE13CECF13CFC0
:101940000470F030D5DE021F6CE9D2E7C933E8330A
:10195000F892D5EDD2E7CD33EC33FC5002B2D5226C
:10196000EC30E7100FBF000C0EBE00080DBD0004E8
:101970000BEB6014A2D5EB13FCED92E7FD2274FF94
:10198000FCFDFEFF22E480F8A2D574FF13FC7D80ED
:10199000E480EFF920E73624F950037907E4F424D2
:1019A00002FBE582158270021583DBF6E024FB5012
:1019B0001BE96014E4F0E582158270021583E004EF
:1019C000F0B40A08E4F0D9EE7401F00A22C2D5227C
:1019D000ED33EC3392D5FA602AB4FF33EDC2E77BE6
:1019E000FF60067A1979F5E4227A1979FE20D50488
:1019F0007A1979F9224E614E002B494E46002D4945
:101A00004E4600E47A08F0A3DAFC7B00740722C09B
:101A100083C082ECC0E0EDC0E0EEC0E0EFC0E0EAE1
:101A200075F010A4CAABF075F04DA42BFBE435F0B3
:101A3000FCEA2410FAEB34C5FBEC34D9FCEDC2E728
:101A4000FF75F056A4F42411C5F0F434C58FF0A44A
:101A50002AE5F03BE43CF020E714121B05D0E0FF40
:101A6000D0E0FED0E0FDD0E0FC1217BE8014F404FC
:101A7000121B05D0E0FFD0E0FED0E0FDD0E0FC126C
:101A800016B5D082D083E0FAEDD2E7CD33EC332423
:101A900082FBE4C3CF33CFCE33CECD33CD33DBF3B4
:101AA0007B0775F00A846004F0A31B0AE5F0F0A33D
:101AB0008FF0740AA4FFACF08EF0740AA42CFEAC74
:101AC000F050010C8DF0740AA42CFDE435F0F0A365
:101AD000DBDE7407223F8000004120000042C80086
:101AE00000447A0000461C400047C350004974245B
:101AF000004B1896804CBEBC205A0E1BCA6753C2BE
:101B00001C749DC5AEFB60065407601C2323121B8A
:101B100033EB54386009121B1F121B2E1216B5EC42
:101B2000F8EDF9EEFAEFCB22EB121B2E80F15438D0
:101B300003241C901AD5FE93FC0EEE93FD0EEE933B
:101B40000ECE93FF22E709F608DFFA8046E709F296
:101B500008DFFA803E88828C83E709F0A3DFFA80F1
:101B600032E309F608DFFA8078E309F208DFFA8049
:101B70007088828C83E309F0A3DFFA806489828A0B
:101B800083E0A3F608DFFA805889828A83E0A3F213
:101B900008DFFA804C80D280FA80C680D4806980C9
:101BA000F28033801080A680EA809A80A880DA8054
:101BB000E280CA803389828A83ECFAE493A3C8C5A1
:101BC00082C8CCC583CCF0A3C8C582C8CCC583CCA1
:101BD000DFE9DEE7800D89828A83E493A3F608DFDC
:101BE000F9ECFAA9F0EDFB2289828A83ECFAE0A3F2
:101BF000C8C582C8CCC583CCF0A3C8C582C8CCC533
:101C000083CCDFEADEE880DB89828A83E493A3F277
:101C100008DFF980CC88F0EF60010E4E60C388F0D9
:101C2000ED2402B4040050B9F582EB2402B40400A0
:101C300050AF2323458223901B9573BB01068982F5
:101C40008A83E0225002E722BBFE02E32289828AD5
:101C500083E49322BB010CE58229F582E5833AF502
:101C600083E0225006E92582F8E622BBFE06E9253C
:101C700082F8E222E58229F582E5833AF583E4934E
:101C800022BB010989828A83F8E028F022500327C9
:101C9000F722BBFE05F8E328F3228A838982F8E461
:101CA000932822BB010689828A83F0225002F72200
:101CB000BBFE01F322F8BB010DE58229F582E58325
:101CC0003AF583E8F0225006E92582C8F622BBFEE9
:101CD00005E92582C8F222EF8DF0A4A8F0CF8CF0A0
:101CE000A428CE8DF0A42EFE22BC000BBE0029EF4E
:101CF0008DF084FFADF022E4CCF875F008EF2FFFF3
:101D0000EE33FEEC33FCEE9DEC984005FCEE9DFEC0
:101D10000FD5F0E9E4CEFD22EDF8F5F0EE8420D207
:101D20001CFEADF075F008EF2FFFED33FD40079876
:101D30005006D5F0F222C398FD0FD5F0EA22C2D5A5
:101D4000EC30E709B2D5E4C39DFDE49CFCEE30E73E
:101D500015B2D5E4C39FFFE49EFE121CE9C3E49DC7
:101D6000FDE49CFC8003121CE930D507C3E49FFF0F
:101D7000E49EFE22C5F0F8A3E028F0C5F0F8E58265
:101D8000158270021583E038F022A3F8E0C5F02533
:101D9000F0F0E582158270021583E0C838F0E82281
:101DA000BB010A89828A83E0F5F0A3E0225006870E
:101DB000F009E71922BBFE07E3F5F009E3192289D0
:101DC000828A83E493F5F074019322BB0110E582CB
:101DD00029F582E5833AF583E0F5F0A3E022500986
:101DE000E92582F886F008E622BBFE0AE92582F89A
:101DF000E2F5F008E222E5832AF583E993F5F0A302
:101E0000E99322BB010A89828A83F0E5F0A3F022DC
:101E10005006F709A7F01922BBFE06F3E5F009F317
:101E20001922F8BB0111E58229F582E5833AF58391
:101E3000E8F0E5F0A3F0225009E92582C8F608A6EB
:101E4000F022BBFE09E92582C8F2E5F008F222E89B
:101E50008FF0A4CC8BF0A42CFCE98EF0A42CFC8A8F
:101E6000F0EDA42CFCEA8EF0A4CDA8F08BF0A42D0C
:101E7000CC3825F0FDE98FF0A42CCD35F0FCEB8EAD
:101E8000F0A4FEA9F0EB8FF0A4CFC5F02ECD39FE63
:101E9000E43CFCEAA42DCE35F0FDE43CFC2275F0D8
:101EA00008758200EF2FFFEE33FECD33CDCC33CC5F
:101EB000C58233C5829BED9AEC99E58298400CF57A
:101EC00082EE9BFEED9AFDEC99FC0FD5F0D6E4CEA8
:101ED000FBE4CDFAE4CCF9A88222B800C1B90059DC
:101EE000BA002DEC8BF084CFCECDFCE5F0CBF978A9
:101EF00018EF2FFFEE33FEED33FDEC33FCEB33FB3D
:101F000010D703994004EB99FB0FD8E5E4F9FA22C6
:101F10007818EF2FFFEE33FEED33FDEC33FCC933C1
:101F2000C910D7059BE99A4007EC9BFCE99AF90F89
:101F3000D8E0E4C9FAE4CCFB2275F010EF2FFFEEF5
:101F400033FEED33FDCC33CCC833C810D7079BEC40
:101F50009AE899400AED9BFDEC9AFCE899F80FD5B8
:101F6000F0DAE4CDFBE4CCFAE4C8F922C3E49FFF45
:101F7000E49EFEE49DFDE49CFC22EB9FF5F0EA9ECE
:101F800042F0E99D42F0EC6480C864809845F022FC
:101F9000EB9FF5F0EA9E42F0E99D42F0E89C45F0A7
:101FA00022E8600FECC313FCED13FDEE13FEEF13FC
:101FB000FFD8F122E86010ECA2E713FCED13FDEE70
:101FC00013FEEF13FFD8F022E8600FEFC333FFEEEC
:101FD00033FEED33FDEC33FCD8F122BB01078982DF
:101FE0008A83021FFB5005E9F8022160BBFE05E968
:101FF000F802216C89828A83022178E0FCA3E0FD4B
:10200000A3E0FEA3E0FF22ECF0A3EDF0A3EEF0A32B
:10201000EFF022A8828583F0D083D08212202A128A
:10202000202A12202A12202AE473E493A3C583C530
:10203000F0C583C8C582C8F0A3C583C5F0C583C8F1
:10204000C582C822F5F0C582A4C582C5F0C583A4A7
:102050002583F58322A42582F582E5F03583F58377
:1020600022E0FBA3E0FAA3E0F922F8E0FBA3A3E05F
:10207000F925F0F0E582158270021583E0FA38F058
:1020800022EBF0A3EAF0A3E9F022BB010789828AE0
:10209000830220615005E9F8022188BBFE05E9F8BA
:1020A00002219189828A8302219ABB010DE582294E
:1020B000F582E5833AF5830220615007E92582F82D
:1020C000022188BBFE07E92582F8022191E58229D9
:1020D000F582E5833AF58302219AD083D082F8E431
:1020E000937012740193700DA3A393F8740193F588
:1020F000828883E4737402936860EFA3A3A380DFF4
:10210000D083D082F8E4937012740193700DA3A36E
:1021100093F8740193F5828883E473740293B5F0A5
:10212000067403936860E9A3A3A3A380D88A838974
:1021300082E473EC8EF0A4CCC5F0CCCDF8EFA4CE45
:10214000C5F02DFDE43CFCE8A42EC8C5F03DFDE43F
:102150003CFCEFA4FFE5F028FEE43DFDE43CFC225E
:10216000E6FC08E6FD08E6FE08E6FF22E2FC08E2DF
:10217000FD08E2FE08E2FF22E493FC740193FD7483
:102180000293FE740393FF22E6FB08E6FA08E6F9E1
:1021900022E2FB08E2FA08E2F922E493FB740193DD
:1021A000FA740293F922E5272431F582E434A3F589
:1021B00083E005272290A32E30090390A331E47514
:1021C000F00112206A021C3B2002E97F2ED202801D
:1021D00018EF540F2490D43440D4FF30060BEF2472
:1021E000BFB41A0050032461FFE5286002152805DA
:1021F0002BE52B7002052A30090E90A32EE475F012
:102200000112206AEF021CA3024F3E7403D2098020
:1022100003E4C209F52790A32E122081E4F528F5E6
:102220002AF52BE52860077F201221E980F5752922
:10223000FFC203C202C204C205C207C208C20A1218
:1022400021B5FF700D3009057F001221FAAF2BAECA
:102250002A22B4255FC2D5C2061221B5FF24D0B40C
:102260000A00501A75F00A782830D50508B6FF0123
:1022700006C6A426F620D5047002D20580D924CF44
:10228000B41A00EF5004C2E5D2060224ECD2038057
:10229000C6D20280C0D20480BCD2D580BAD2078018
:1022A000B47F201221E92004077401B5280040F111
:1022B0001221A6FF1221E9022223D20AD208809518
:1022C0001221A6FB1221A6FA1221A6F94A4B70068A
:1022D00079EA7A257BFF20042EE528602A7E008E8D
:1022E00082758300121C5460060EEE652970F0C2E0
:1022F000D5EBC0E0EAC0E0E9C0E0EE12254DD0E049
:10230000F9D0E0FAD0E0FB121C3BFF60AAEBC0E082
:10231000EAC0E0E9C0E01221E9D0E02401F9D0E010
:102320003400FAD0E0FBE5290460DCD529D98087A8
:10233000D20480A212252F60F7E52970010412193A
:1023400093A929600DE529600914F5291225D7EF15
:1023500060F3EA30E702F404C3995079EAF42529DE
:102360000430E701E404F529800D12252F60C1EA4D
:1023700005292529121993EA90A35DF030E701E4BD
:10238000252904D529042007011412254DE4C0E0B5
:102390001225D790A35DE0601320E70714F0122107
:1023A000D1802204F0D0E014C0E07F001221D1E5FA
:1023B0002960071221C81529800B3007031221C894
:1023C000D0E0022223D0E00480C412252F609EE5D5
:1023D000290412199390A35DEAF0E5292007026011
:1023E0000104240412254D74FF04C0E01225D71205
:1023F00021D1E52920070260031221C8D0E0B529C8
:10240000E87F451221DB90A35DE07F2B30E7047F5E
:102410002DF404C0E01221E9D0E075F00A84C0F088
:102420001221D2D0E01221D2022223791080027927
:1024300008C208C20A8008D2D5790A8004790AC283
:10244000D5E529047002F529E4FAFDFEFF1221A664
:10245000FC7B082003131221A6FD7B1030020A1218
:1024600021A6FE1221A6FF7B20EC3382D592D55007
:1024700013C3E43002069FFFE49EFEE42003039DA5
:10248000FDE49CFCE4CBF8C203EC700CCFCECDCCC9
:10249000E824F8F870F38017C3EF33FFEE33FEED56
:1024A00033FDEC33FCEB33FB994002FB0FD8E9EB37
:1024B000300305F8D0E0C448B203C0E00AEC4D4E4A
:1024C0004F78207B0070C2EAB5290040BCC0E01202
:1024D000254FD0F0D0E0200304C4C0E0C4B203C054
:1024E000F01221D2D0F0D5F0EB0222231220DA2212
:1024F000C053242B5822914C228D42242F4F243735
:102500004424374922A643243D55236A4623CA451D
:10251000233447260A5022952D22992E22BC2B22A5
:102520009D2322BA2025F32A225548000022B4E533
:1025300029B4FF037529061221A6FC1221A6FD125B
:1025400021A6FE1221A6FF90A3560219D0790AA255
:10255000D5200514300709B910020404B908010494
:10256000A2D52008025001042004689204B5280076
:102570005034C0E07F203005197F30A20472087209
:1025800007500F1225A6C204C208C207C20A7F3034
:10259000800F300703E9C0E01221E9300703D0E0E3
:1025A000F9D0E0B528CC3007177F30B9100C1221D4
:1025B000E97F583006077F788003B908031221E9C4
:1025C0003004057F2D0221E97F20200AF87F2B208F
:1025D00008F322920480CF7F00B40700500B2456EA
:1025E000F582E434A3F583E0FF22286E756C6C2934
:1025F00000D2031221A63003F8C203782830D50197
:1026000008F60222552D504349581221A62403B43E
:1026100005004001E4902605931221DA743A122154
:10262000DAD20575280402242BC1A441A76A00410F
:10263000A6350241A62E0241A63B0041A63E0A4213
:10264000A62C0000C12542A633000042A62F0000A0
:1026500042A639000042A63C000042A631000042DA
:10266000A636000041A638FF41A6DC0041A6E002E4
:1026700041A6DF01C1A641A76B00C12741A6C10049
:1026800041A6C00041A6C30041A6C20041A6BF00AA
:1026900041A6BE006030A56E0000000000000000F2
:1026A000000000000000000000000000000000002A
:1026B000000000000000000000000000000000001A
:1026C00000000000000000000239000042A1BA0032
:1026D00000C128C11AC11DC11CC11E41A743004130
:1026E000A7130F41A714FF41A712124EA215070509
:1026F0000708070B070E07110714071748A28C03DA
:102700000104010302040248A29403050405030620
:1027100004064CA29C030904090509030A040A05DE
:102720000A46A2A8040D030E040E4CA2AE03110427
:1027300011051103120412051248A2BA0409050971
:10274000030A040A52A26C01A28C01A29401A29C69
:1027500001A2A801A2AE01A2BA46A2850404060302
:1027600006044AA239020303030204030404044AD0
:10277000A243020703070407020803084AA24D0206
:102780000D030D040D020E030E48A2570212031290
:10279000021303134CA26002180318041802190351
:1027A00019041952A1F201A23901A24301A24D015B
:1027B000A25701A26001A24D46A2310505050406FB
:1027C0000542A2830B0645A223010907030A42A280
:1027D000C41E0641A1D30342A2C2310649A1D400BE
:1027E000000005040000020342A2C6310647A1DD35
:1027F0000D07000203020342A2D1310643A280006A
:10280000020442A23731064CA1E403070707020283
:1028100004020402000042A2D3310649A2C81144B6
:102820000606440602440643A20404440642A1F0FC
:1028300031064FA1C401A1D301A1D401A1DD01A2A0
:102840008001A1E44FA2D501A2C201A2C601A2D17A
:1028500001A23701A2D349A208020D03020E03020E
:102860000F0349A22802110302120302130346A117
:10287000BD03030303030341A2070041A27E0041FD
:10288000A27F0041A1C30041A25F00C11741A28BFA
:1028900000C115C11641A2E4644FA5D2000000009A
:1028A000000000000000000000000042A5E500005C
:1028B00042A5CC000042A5E3000042A5CE000042A4
:1028C000A5D001F442A5CA003242A5E1271041A5D6
:1028D000C80041A5C90041A66DFF41A66C0041A6F4
:1028E00064FF41A6680041A6690041A66B80C12033
:1028F00041A6626041A66344C1AC42A69400004177
:10290000A692FF41A6930041A68D0A41A68E0041E2
:10291000A68F0041A6B70042A6B8000042A65F0AF3
:102920000042A65505A042A6570000C10FC10B42A8
:10293000A65D03FFC10D42A6590000C10CC10E42A5
:10294000A653022641A6520041A76E0046A6720178
:10295000000100010043A66E80808041A67880417E
:10296000A6710044A5470000000043A56BFF4DD4AD
:1029700042A4790000C12D41A4780041A71D004266
:10298000A71B0000C123C12241A76F00C12F41A690
:102990009E0042A698000042A69600004FA5F303B1
:1029A00002060203050204040305030206024CA505
:1029B000E707030306040506050506060542A75AB0
:1029C0000000015300C130015200015000014D00D0
:1029D000014F0041A4B5FF41A4B30041A4B400419C
:1029E000A6850042A689000042A5C2000002400060
:1029F00000013F00013B0041A6F20042A6A90000F1
:102A000041A777FF48A3F80048003F015F020E4846
:102A1000A4000162003F0243020E48A408024600DF
:102A20003F0327020E48A411032A003F0405020EAB
:102A300048A42500D200480210020A48A43000D25F
:102A400000480150020A48A41C0231003602F1017C
:102A50006743A419042F0548A3E4040105010302F8
:102A600004024CA3EC030504050505030604060552
:102A700006C11341A42F0042A42D0000C11141A49E
:102A800010FFC19442A6B2000042A6B5000041A6C4
:102A9000B00041A6B40041A6B10041A6AF3F00AAD4
:102AA000220000FC0200000064645A2A28241F64EB
:102AB00064646464645A110E323232323232323219
:102AC000323232323232013232000F6432011E00B1
:102AD000000000000000000101000000060000648A
:102AE0006464323232000000010101010101010180
:102AF00001010101010101010004000010000202B6
:102B000000000000010204020002040301000000B2
:102B10003232000005050505050505060707050510
:102B2000050505050000000009000000030303324D
:102B3000320002030000010000FFFFFFFFFFFFFF64
:102B4000FFA5A59B969B867F82FFFFF0FFF4EAFD21
:102B5000F8FFFEF8FFF8F8FFCBDAFFF0F0FFFDF822
:102B6000FF40A5A50F4A134930313233343536378B
:102B700038394142434445464748000000000000C0
:102B800000000000022055CC55AAFFFF03940291DB
:102B900002E0A5A500FFFFFFFFFFFF005A63331609
:102BA00001010101011A0103084627782EC673A905
:102BB000544598221F4D5DBFEF80B300A940A9C0C6
:102BC00095009040818081400101023A801871385F
:102BD0002D40582C4500B1892100001E000000FF47
:102BE000005552393136303130303030310A000042
:102BF00000FD00324B185212000A20202020202015
:102C0000000000FC0056583332313620536572699B
:102C1000657300D900FFFFFFFFFFFF0009D1447B70
:102C2000010000002A1A010380462778EACA95A607
:102C3000554EA1260F5054BFCF80714F818081C067
:102C4000A9C0B300D1C001010101885E00A0A0A00D
:102C5000295020201300A2083200001E000000FDB1
:102C600000384B1E7018000A202020202020000071
:102C700000FC00565733323036510A2020202020E5
:102C8000000000FF00313233343536373839303107
:102C90003233006500FFFFFFFFFFFF0009D1447BD7
:102CA000010000002A1A010380462778EA6A1FA65D
:102CB000544EA1260F4F53BFEF807140818081C0D9
:102CC000A9C0B300010101010101565E00A0A0A04E
:102CD00029503020350055502100001E000000FF13
:102CE0000031323334353637383930313233000041
:102CF00000FC00565733323036510A202020202065
:102D0000000000FD00384C1D7111000A2020202019
:102D1000202001D7020325F1509005040302071675
:102D2000010611121513141F2023099F0767030CB6
:102D3000001000083183010000023A801871382D1C
:102D400040582C450055502100001E011D8018716F
:102D50001C1620582C250055502100009E011D00F6
:102D60007251D01E206E28550055502100001E8C37
:102D70000AD08A20E02D10103E9600555021000008
:102D8000180000000000000000000000000000002B
:102D900000000056FFFFFFFFFFFFFFFFFFFFFFFFE9
:102DA000FFFFFFFFFFFFFFFFFFFFFFFFFFFFFFFF33
:102DB000FFFFFFFF00FFFFFFFFFFFF008B278A28B9
:102DC000892912405A12026D752F008F30E4783F26
:102DD000F6F531F532AB27AA28A929121C3B04F5D8
:102DE0002B752A01E52AC3952B503912407F30E01C
:102DF00005120273801E1230C890A097E0FF640E87
:102E00006012EF640F600DEF64106008124008401C
:102E1000031240D21240982532F532E43531F531B3
:102E2000052A80C0120231EF7004F52E803A12029A
:102E300031BF01071240618D2E802D120231EF64E7
:102E40000270251240618E338F34AE31AF327C0078
:102E50007D0C121CE98D2EE53430E006740C252E15
:102E6000F52EE52EC313F52E120279E4F52DE52D8E
:102E7000C39F500DE52D124046E4F0A3F0052D80D0
:102E8000ED752A01E52AC3952B40030230BA1240A2
:102E90007F30E003022FEE1230C890A097E0B40F0D
:102EA0000F20280612027F022FD1120285022FD195
:102EB00090A097E0B4100F20280612028B022FD1A9
:102EC000120291022FD190A097E0B40E0F20280695
:102ED000120297022FD112029D022FD190A097E0EB
:102EE000B4010B12400840061202A3022FD190A099
:102EF00097E0B4020B12400840061202A9022FD13B
:102F000090A097E0B4030B12400840061202AF02F3
:102F10002FD190A097E0B404071240084002800C23
:102F200090A097E0B4040B12400840061202B502CC
:102F30002FD190A097E0B4050B1240084006120272
:102F4000BB022FD190A097E0B4060B1240084006B8
:102F50001202C1022FD190A097E0B4070B124008D3
:102F600040061202C7022FD190A097E0B4080A12BF
:102F7000400840051202CD805890A097E0B4090A9D
:102F800012400840051202D3804790A097E0B40B8E
:102F90000A12400840051202D9803690A097E0B48A
:102FA0000C0A12400840051202DF802590A097E02D
:102FB000B40D0A12400840051202E5801490A09753
:102FC000E0B4110A12400840051202EB800312021D
:102FD0007390A097E0FF640E6021EF640F601CEF18
:102FE0006410601712400840121240D2800D7B001E
:102FF0007A007935AF34AE331202F1124098F52CD5
:10300000AF357E00AC33AD34121CD78E318F32E534
:103010002E7016F52DE52DC3953550441240121231
:103020004041E5F01240E080ECE4F52DE52DC3953C
:1030300035502D124042C083C082E0FCA3E0FD1257
:103040004012AEF0A82E088005CEC313CE13D8F9D7
:10305000FFEC4EFEED4FFFD082D0831240DF80CCDC
:10306000E52C252EF52EE52EB40C081202F7E4F51A
:103070002E803BE52ED3940C40341202F774F425D5
:103080002EF52EE4F52DE52DC39535502112401275
:10309000FFAEF0C3E52C952EFDEFA805088005C313
:1030A00033CE33CED8F91240411240DF80D8E52E1E
:1030B000D3940B50B1052A022E8412405AE52E609B
:1030C000061202F7E4F52E227B007A007935AF3440
:1030D000AE331202F122C0E0C083C082C0D075D0EE
:1030E00008908B54E4F0301D1C90901AE054C0609E
:1030F0001490F024E054FDF090F009E0FF90F0040B
:10310000E04F54BFF090F020E020E1030231E0787E
:1031100053760090F03CE030E73A90F03D7480F058
:1031200090F03AE030E71A90F03D7444F090A48BB0
:10313000E090F03EF090F03B74C0F0785276018061
:103140001390F03B74A0F090F039E04440F0784DDB
:103150007600D23090F03CE030E63E7852E6FF78E0
:103160005066601A7852E606248BF582E434A4F5A2
:1031700083E090F03EF090F03D7440F080D6748B88
:103180002FF582E434A4F583E090F03EF090F03D1A
:103190007440F07852760080BB90F03CE030E52639
:1031A00090F03FE0FF784DE60624B6F582E434A4C3
:1031B000F583EFF090F03D7420F0D230E6D3942701
:1031C00040D7760280D390F03CE030E40690F03DAA
:1031D00074FFF090F03CE030E30690F03D74FFF0B7
:1031E00090F020E020E3030232BB7853760290F0A7
:1031F0008CE030E73A90F08D7480F090F08AE03007
:10320000E71A90F08D7444F090A48BE090F08EF06B
:1032100090F08B74C0F078527601801390F08B742C
:10322000A0F090F089E04440F0784D7600D23090E4
:10323000F08CE030E63E7852E6FF785066601A780F
:1032400052E606248BF582E434A4F583E090F08EF8
:10325000F090F08D7440F080D6748B2FF582E434BA
:10326000A4F583E090F08EF090F08D7440F07852E9
:10327000760080BB90F08CE030E52690F08FE0FF88
:10328000784DE60624B6F582E434A4F583EFF09099
:10329000F08D7420F0D230E6D3942740D7760280A8
:1032A000D390F08CE030E40690F08D74FFF090F055
:1032B0008CE030E30690F08D74FFF090F020E02079
:1032C000E5030233967853760590F09EE030E73AB6
:1032D00090F09F7480F090F09CE030E71A90F09F9F
:1032E0007444F090A48BE090F0A0F090F09D74C036
:1032F000F078527601801390F09D74A0F090F09BCE
:10330000E04440F0784D7600D23090F09EE030E618
:103310003E7852E6FF785066601A7852E606248BB3
:10332000F582E434A4F583E090F0A0F090F09F746F
:1033300040F080D6748B2FF582E434A4F583E090BE
:10334000F0A0F090F09F7440F07852760080BB902F
:10335000F09EE030E52690F0A1E0FF784DE60624EF
:10336000B6F582E434A4F583EFF090F09F7420F07A
:10337000D230E6D3942740D7760280D390F09EE0F7
:1033800030E40690F09F74FFF090F09EE030E3068A
:1033900090F09F74FFF090F020E030E00990F0246E
:1033A000E054FEF0D22478497600087600D0D0D0E0
:1033B00082D083D0E032C0E0C083C082C0D075D05C
:1033C00018908B54E4F090F020E020E2030234A146
:1033D0007853760190F044E030E73A90F0457480FD
:1033E000F090F042E030E71A90F0457444F090A479
:1033F0008BE090F046F090F04374C0F07852760184
:10340000801390F04374A0F090F041E04440F078D5
:103410004D7600D23090F044E030E63E7852E6FF40
:10342000785066601A7852E606248BF582E434A45C
:10343000F583E090F046F090F0457440F080D6744B
:103440008B2FF582E434A4F583E090F046F090F001
:10345000457440F07852760080BB90F044E030E54F
:103460002690F047E0FF784DE60624B6F582E43476
:10347000A4F583EFF090F0457420F0D230E6D394B9
:103480002740D7760280D390F044E030E40690F0F5
:103490004574FFF090F044E030E30690F04574FF8F
:1034A000F090F020E020E40302357C78537603901E
:1034B000F094E030E73A90F0957480F090F092E06C
:1034C00030E71A90F0957444F090A48BE090F09659
:1034D000F090F09374C0F078527601801390F093DE
:1034E00074A0F090F091E04440F0784D7600D23036
:1034F00090F094E030E63E7852E6FF785066601A2D
:103500007852E606248BF582E434A4F583E090F04B
:1035100096F090F0957440F080D6748B2FF582E48D
:1035200034A4F583E090F096F090F0957440F07834
:1035300052760080BB90F094E030E52690F097E062
:10354000FF784DE60624B6F582E434A4F583EFF067
:1035500090F0957420F0D230E6D3942740D77602CD
:1035600080D390F094E030E40690F09574FFF090F2
:10357000F094E030E30690F09574FFF0784976001F
:10358000087600D0D0D082D083D0E032FF90A30A5A
:10359000E0FCA3E0F5828C83EFF090A30A74F0F0D6
:1035A000A322F090A30CE475F001121D7490A30AFD
:1035B000E475F001021D741220618E827583001281
:1035C0001C54FF90A30AE475F001121D8A85F08255
:1035D000F583EFF090A309E004F0227BFF90A305B0
:1035E00012208190A3087401F022E0FAA3E0FBEA24
:1035F000C4540FFFED2FFFE433FE90A6AFE0FDD3E0
:10360000EF9D7480F86E9822E0FCA3E0FDECC454BA
:103610000FFF90A6AFE0C4540F2290A2F0E0547FB9
:10362000F0A3E0F090F076E022F090A6B1E054072D
:10363000C454F0FE2290A30AE0FCA3E0F5828C8340
:1036400022FF90A30AE0FAA3E0F5828A8322EEF03B
:10365000A3EFF0ECA3F0A3EDF0A3EBF0A2AF229068
:10366000F075E04401F090F0677401F090A6B0E0CE
:1036700054F0FF90F06822E0FCA3E0FDECC4540F8E
:103680004290EC540FFEE42DFFEE34F02290A6B5EC
:10369000E0FEA3E0FF90A6B2E0FCA3E0FD6F22EF06
:1036A000540FC454F0FEE0FCA3E02400FFEE3C22E3
:1036B000ED75F005A42455F582E43400F583E49318
:1036C0002290A30AE0FEA3E0F5828E832290F0759B
:1036D000E04480F02290F075E0547FF02290A2F157
:1036E000E02400FF90A2F0E03E22547F90A2F0F090
:1036F000A3EFF090F076E022F0EFA3F0E490A309BE
:10370000F022FF90A6B5E034008F82F583E022EE30
:10371000F0A3EFF0A322C2AF90F076E02290A2E5F2
:10372000121FFB780F021FA1E590F05390F090A6B6
:10373000B1E022CF24FFCF34FFC4540F2290A2F077
:10374000E0FEA3E0FFEE2290A2F012364E920112AC
:10375000371690A2FCF090A2F4E0FF90A2FA700756
:1037600004F0A3E4F08005E4F0A3EFF090A6B1E04C
:10377000FD605890A2F0E0C4540FFFED2FFFE4333A
:10378000FE90A6AFE0FD7C001235FF40030238D664
:1037900090A2FAE0FEA3E0FF90A2F1E02F1236E340
:1037A000123733FF90A6B1E02FFFE433FED3EF9D35
:1037B000EC6480F8EE64809840030238D612373DFE
:1037C00030E7381236EA4401F0803090A2F0123629
:1037D00008FBEFD39B40030238D690A2FAE0FEA389
:1037E000E02DFFEC3E123733D39B40030238D61254
:1037F000373D30E7061236EA4480F090A6B1E0602B
:10380000031236CD90A2F5E06005E4FF12456A9000
:10381000A6B4E0B4260D90A6B2E07002A3E0600367
:10382000124FBA90A6B0E054F0642060030238A8AA
:10383000A312362D1236DD90A2F6F0A3EFF090A27F
:10384000F2E0FFA3E090A2F8CFF0A3EFF0E4FFFED8
:10385000D390A2FBE09F90A2FAE09E50030238C0F2
:1038600090055574AAF09002AA7455F0900555740D
:1038700006F090055574AAF09002AA7455F09005D0
:10388000557402F090A2F8123638E0FD90A2F612BC
:103890003645EDF090A2F61235B090A2F81235B090
:1038A0000FBF00010E02385012D87B12362A123692
:1038B000DDFE90A2F2E0FCA3E0FDA3E0FB124CECE5
:1038C00090A2F5E060057F1C12456A1236D590A2E1
:1038D000FCE090F076F0A20192AF2290A2E5EFF02A
:1038E000A37420F0A2AF9200C2AF7A0079511235D2
:1038F000DB7A00794F123A5F2403FFE43EAB07FA0C
:103900008B82F583E090A2E7F00BBB00010A8B826B
:103910008A83E090A2E8F00BBB00010A8B828A83C5
:10392000E090A2E9F0E4FDED75F005A42456F582DF
:10393000E43400F583E493F990A2E7E0FFE96F70C7
:1039400051ED75F005A42457F582E43400F583E4C5
:1039500093FE90A2E8E0FCEE6C7037ED75F005A4E4
:103960002458F582E43400F583E493FE90A2E9E064
:10397000FCEEB5041D1236B090A6B0F0ED75F00562
:10398000A42459F582E43400F583E49390A6AFF0C3
:103990008015E9B5070B1236B054F0440F90A6B06D
:1039A000F00DED6421708090A2E7E090A2E6B47F74
:1039B0000574D7F080037420F090A6B0E070487BC7
:1039C000FF7A0079541235DD7A007952123A5F2479
:1039D00006FFE43EFAAB078B82F583E0B4BF280B09
:1039E000BB00010A8B828A83E024BD600C24FA703C
:1039F0001090A6B07420F0800E90A6B07421F080D4
:103A00000690A6B0742FF012365FBF20057450F0F8
:103A100080037406F090A2E5E0FF6402600FEF609F
:103A2000067F1C7E008003E4FFFE124D2990F07596
:103A3000E054FEF090A2E6E090F067F090A6B0E0CF
:103A4000B431127F26124CAE90A6B4E0B426069094
:103A5000A6B07433F0A20092AF90A6B0E0FF227D32
:103A600002123BDE90A6B5E0FEA3E02290A2EFEFAB
:103A7000F07B2F7D067C011203037B447D00123B0B
:103A80006F7DD5123BD67D01123B5D7BFF7402FD3D
:103A9000FC1203037BF07D1B123B6F7B1A7D037CC2
:103AA0000212030390A2EFE0FF7B1A7D047C021256
:103AB00003037D05123B5D7D06123BCE7D07123B65
:103AC0007F7D08123BCE7D09123B7F7D0A123BAB06
:103AD000FF7D0B123BABFFE4FB7D0C7C021203036A
:103AE0007BA07D1C123B917B047D1D123BA0FF7DC2
:103AF0003A123BD67B0F7D1F123B917B647D2812CF
:103B00003BA0FF7B077D927C0012030390A2EFE0B5
:103B10007DFC123BB77DFD123BB77B3170137D40BE
:103B20007C02FF1203037D41123BC47B447D428033
:103B3000127D507C02E4FF1203037D51123BC47BD3
:103B4000447D527C02E4FF120303E4FF124D6490B3
:103B5000A2EFE0FFE4FB7DFE7C0102030390A2EFF5
:103B6000E0FFE4FB7C0212030390A2EFE0FF22904F
:103B7000A2EFE0FF7C0212030390A2EFE0FF22908D
:103B8000A2EFE0FFE4FB7C0212030390A2EFE0FF50
:103B90002290A2EFE0FF7C0212030390A2EFE0224A
:103BA000FF7C0212030390A2EFE022E4FB7C0212EE
:103BB000030390A2EFE022FF7B647C0112030390D9
:103BC000A2EFE0227B467C02E4FF12030322E4FB27
:103BD0007C02120303227B0F7C001203032290A3BA
:103BE0000112208190A304EDF0A2AF9205C2AF12A2
:103BF000368D7002EC6E602390A30AECF0A3EDF01A
:103C0000A3EE1236F81236C1E0FF90A30C1236383C
:103C1000EF1235A21235D4E0B440EA90A6B2E0FF2C
:103C2000A3E090A30ACF1236F890A304E0FF90A37C
:103C300009E0FEC39F500890A3011235B780EAE463
:103C400090A309F090A308E0FFA3E0FEC39F5008F3
:103C500090A3051235B780EC12359A74C0F090A38A
:103C600004E0F9C313C454F0440112358C74C1F05C
:103C700090A6B2E012358C74C2F090A6B2A3E0FE1A
:103C8000123635EE12359974C3F012358D74C4F0C6
:103C9000E92EFD12364112359874C5F090A6B2E0B7
:103CA00012364112359874C6F090A308E02DFF1229
:103CB0003635EFF090055574AAF09002AA7455F0CD
:103CC0009005557473F012368D7002EC6E60319071
:103CD000A30A12370FECF0ED1236FA90A30CE0FEB7
:103CE000A3E0FFF5828E83E0FD123642E08F828EE4
:103CF00083F01236C1ED1235A21235D4E0B440DBA8
:103D0000A20592AF22E490A2E5F0A3F0908B57E0D9
:103D10004481F090F04CE090A2E7F090F04C7410E9
:103D2000F0908101E090A2EAF0E4908101F09081AE
:103D300002E090A2EBF0908102E04402F090864114
:103D4000E090A2ECF0908D55E090A2E8F0908D55B7
:103D5000E054BFF0908D50E090A2E9F0908D50E0DB
:103D60004401F0E054FDF0E04404F0908D58E0444C
:103D700080F0908D5FE04401F0E4908D5CF07491F0
:103D800012D91FFF90A2E5E4F0A3EFF0E07F00FE60
:103D900090A2E5F0A3EFF0908D52E0FDEDFF90A230
:103DA000E5EEF0A3EFF0E4908D5CF0749012D91F73
:103DB00090A195F0908D52E090A1B8F0E4908D5CC8
:103DC000F0908D5B749212D92290A16FF0908D5279
:103DD000E090A196F012022B90A2E9E0908D50F0B5
:103DE00090A2E8E0908D55F090A2E7E090F04CF0C2
:103DF00090A2ECE0908641F090A2EAE0908101F080
:103E000090A2EBE0908102F090A2E5E0FEA3E0FF3B
:103E1000220C0C18203040600C0C00FFFFFFFFFF4D
:103E2000FF0009D1447B010000002A1A0104B546B5
:103E300027783A1DF5AE4F35B3250D5054BFEF80AE
:103E40008100B300D100714FA9408180D1C0010130
:103E5000565E00A0A0A0295030203500555021000A
:103E6000001E000000FF00433646304B33434E3007
:103E700037554C0A000000FC00565733323036519B
:103E80000A2020202020000000FD00314B1D71047D
:103E9000000A202020202020014802031DF150901C
:103EA000050403020716010611121513141F20231F
:103EB000091F0783010000023A801871382D40580D
:103EC0002C450055502100001E011D8018711C1644
:103ED00020582C250055502100009E011D007251D4
:103EE000D01E206E28550055502100001E8C0AD08F
:103EF0008A20E02D10103E96005550210000180039
:103F000000000000000000000000000000000000B1
:103F10000000000000000000009D55AA6699535261
:103F2000435C42464150492E632056657273696F67
:103F30006E20332E302E3030204465632030352003
:103F40003230313223000100000000000080000008
:103F5000010000000080000000000100008001312D
:103F6000044700160080040B0117040C00800413A2
:103F7000000E010500800162048E002C00800416F2
:103F8000012E041800800427001C010B008001761C
:103F900004AB00350080041D013C041F0080043682
:103FA000001501210080018B04C9003E008004241B
:103FB0000149042600800445000E01370080FF3FC0
:103FC00046FF3F5EFF3F76FF3F8EFF3FA6010000AA
:103FD00000000000800000010000000080000000E0
:103FE00000010000801000000040008000C00100BF
:103FF0000140018001C002000240028002C00300B3
:104000000340038003C00400C3E534947BE533948C
:1040100000227E00E532252DFFEE3531FEEF25E052
:10402000FFEE33FE7842860308E6FA08E6F98F824F
:104030008E83021DCB90A2EDE0FBA3E0FAA3E0F992
:1040400022FFE52D253625E0249EF582E434A5F5F2
:104050008322EBF0A3EAF0A3E9F090F00A7455F0A4
:1040600022783BE6FF7E007C007D0C121CD7C3EF5C
:104070009532F532EE9531F531FEAF32021CE9ABE7
:1040800027AA28A929852A82758300121C54753312
:1040900000F53490A197E022783C860308E6FA0800
:1040A000E6F9853482853383021C541220AA8F825C
:1040B0008E83121C549080E3F022121DCBACF09042
:1040C00080E1F0AE04EE9080E2F0227B017AA179EB
:1040D000332274852534F53474FF3533F53322EEFD
:1040E000F0A3EFF0052D229000051220AA7854E6E7
:1040F0002290A2F0EEF0EF1236549203123716908F
:10410000A2F4F090A6B1E0FD601A90A2F01235EA98
:1041100040030241ABEA30E72790A2F012361D447B
:1041200001F0801C90A2F0123608FEEFD39E4003EF
:104130000241ABEC30E70990A2F012361D4480F04A
:1041400090A6B1E060031236CD90A2F3E06005E4E2
:10415000FF12456A90A6B4E0B4260D90A6B2E070B6
:1041600002A3E06003124FBA12D87B90055574AADF
:10417000F09002AA7455F0900555740212362990F9
:10418000A2F1E02400FF90A2F0E03EFE90A2F2E057
:104190008F828E83F090A2F3E060057F1C12456A47
:1041A0001236D590A2F4E090F076F0A20392AF22FE
:1041B00090A2ECEFF0A3124052908D00E0547FF0FB
:1041C0001202FD124035121DA07856A6F008F69096
:1041D0000002121C5454F09080E0F0900003124052
:1041E000BA90A2ECE070287854F608F67854E6FE0F
:1041F00008E6FFC3785796EE1896506D124035903A
:1042000000051240AB785506E61870E00680DDE444
:104210007854F608F6C37955E778579619E7189653
:1042200050471240351240E7FE08E6F5828E8312B1
:104230001C54FF6003F47022785506E618700106DE
:104240001240351240E7FC08E6F5828C83121C54BC
:10425000FE9080E3EFF0DEF980059080E3EFF078E8
:104260005506E61870AF0680AC12405A22909000B6
:10427000741FF0909030E04410F0909033E0448749
:10428000F0909037E04438F090903A7480F090903D
:10429000347450F09092317420F09092327430F077
:1042A0009092337440F09092347450F0909237743E
:1042B00020F0909001E054F0F090903F7420F09046
:1042C00090467417F09090477480F0908B5074086B
:1042D000F0E4909055F09090577403F0E49090586B
:1042E000F0909059F090905A7480F0909050F09027
:1042F000905474FFF09096D17415F09096D6E044E7
:1043000004F0909081E04440F090901174ADF090F2
:104310009010740BF0E490900FF0909014F0909047
:10432000137480F0E4909012F02290A33112403880
:10433000121C3B04FFD3943C40027F3C7E3C90A186
:1043400033E4F0A3DEFCE4FEEEC39F501E90A331E5
:104350001240388E82758300121C54FD74332EF582
:1043600082E434A1F583EDF00E80DD90A097E0B4F7
:104370001110120231EF700A12023750057F01123C
:10438000023D90A330E0FF12024390A097E024F298
:10439000602014600D14601280001240CB1202499C
:1043A00080161240CB12024F800E1240CB120255E3
:1043B00080061240CB12025BA202920390A32EE071
:1043C000F527A3E0F52802026190A2F012370FED65
:1043D000F0A2AF920312371690A2F3F090A6B1E0CC
:1043E000FD601790A2F01235EA4003024457EA300C
:1043F000E72012361A4401F0801890A2F012360815
:10440000FEEFD39E4002804FEC30E70612361A448E
:1044100080F090A2F2E06005E4FF12456A90A6B435
:10442000E0B4260D90A6B2E07002A3E06003124F44
:10443000BA12362A90A2F1E02400FF90A2F0E03EEA
:10444000FE124D2990A2F2E060057F1C12456A9091
:10445000A2F3E090F076F0A20392AF221220079030
:10446000A34374FFF5F0121D7490A342E0FBA3E098
:10447000FAA3E0F9121C3B90A345F0A3E0FCA3E0F3
:10448000FDA3E0FEA3E0FF7808121FC890A3461228
:10449000200790A346E0F8A3E0F9A3E0FAA3E0FB2D
:1044A00090A345E0FFEB4FFFEAFEE9FDE8FCA32205
:1044B000121CA3740129F9E43AFA90A2EAE0FCA3E1
:1044C000E0FDA3E0FEA3E0FF2290A331E0FBA3E028
:1044D000FAA3E0F922EBF0A3EAF0A3E9F02212D963
:1044E0000D90A334EEF0A3EFF022024B57E493A318
:1044F000F8E493A34003F68001F208DFF48029E496
:1045000093A3F85407240CC8C333C4540F4420C8E1
:10451000834004F456800146F6DFE4800B01020478
:104520000810204080902629E47E019360BCA3FF00
:10453000543F30E509541FFEE493A360010ECF54AD
:10454000C025E060A840B8E493A3FAE493A3F8E49C
:1045500093A3C8C582C8CAC583CAF0A3C8C582C808
:10456000CAC583CADFE9DEE780BE90A2FDEFF0A2F4
:10457000AFE433A3F0C2AF90A2FDE0701690A6B4F2
:10458000E0B4260F90A6B2E07002A3E0604B124F99
:10459000BA804690F067E090A2FFF090F068E0905B
:1045A000A300F012365FBF20057450F0800374063C
:1045B000F090F075E0FD90A2FDE0FF7E00124D2925
:1045C000AF05ED54FE90F075F090A2FFE090F0671B
:1045D000F090A300E090F068F090A2FEE024FF923B
:1045E000AF2290A2E5122007908B57E0FBE04480B9
:1045F000F0908105E07007908104E0B4010790819C
:1046000005E0B4020BE490A6B1F0908B57EBF022DA
:10461000908105E07018908104E0B4011190F07071
:10462000E04480F012371D90F0D0EFF08008123790
:104630001D90F076EFF090A2E5121FFBE4FFEE5420
:10464000F0FEED540FFDE4FC780C121FA190A6B112
:10465000EFF0AF03908B57EBF022491033000020AE
:10466000000000010100000000220008810000009D
:1046700000000000C37100000000001017171313A2
:1046800000001216AAAA290D5657585995969798C0
:10469000999A9C9D9EA3A4A5A6A7A8A9AAABBCBDB8
:1046A000BEBFC0C1C2C3C4DF03DF034FBF9F3FBF54
:1046B000474FBF9F1340BF01003F1340BF1340BF90
:1046C00001003F1340BF0000000000007000860A98
:1046D000076000860A074800860A073000860A0736
:1046E0001200B80E012400B80E022A00B80E0335DD
:1046F00000B80E04FF46C6FF46CCFF46E0000000AF
:10470000FF46C6FF46CCFF46E0000000FF46C6FF5E
:1047100046D1FF46E5000000FF46C6FF46D6FF46ED
:10472000EA000000FF46C6FF46DBFF46EF00000040
:104730009090307480F090A093E090910030E40568
:104740007412F080037411F0909101740AF090914A
:10475000027484F09091037401F0909104F09091B0
:1047600006F0E490911DF09091257441F0E4909151
:1047700026F0909161F0909030F09090C0E044105D
:10478000F09090C1E0547FF09090C2E04403F0902C
:1047900090C8E04404F02290A2E512370F12208165
:1047A00090A2EC123728600EFFC4540F429090A2E2
:1047B000E512369F800690A2E512367790A2EDF0C2
:1047C000A3EFF0E4FFFED390A2EBE09F90A2EAE01B
:1047D0009E402490A2ED123638E493FD90A2E71299
:1047E00020618F828E83ED121CB590A2ED1235B040
:1047F0000FBF00010E80CF90A2ECE0F59022AD0734
:10480000AC06A2AFE433F9123716FB90A6B1E06014
:1048100010EC30E71A547FFC90F076E04401F08011
:104820000EEC30E70A547FFC90F076E04480F09084
:10483000F067E0FA90F075E054FEF090F0677426AF
:10484000123629E42DFFEE3CFE124D29AF0290F006
:1048500067EAF0AF0390F076EBF0AF01E924FF9246
:10486000AF22C0E0C083C082C0D075D00830981B92
:10487000C298AF997845E624DFF582E434A4F58345
:10488000EFF006E6D3943740027600309929C299BA
:104890007848E6FF1866601974172FF582E434A58E
:1048A000F583E0F5990806E6D3940F400A76008078
:1048B0000690A4DE7401F0D0D0D082D083D0E03254
:1048C00090A2EC124052908D00E0547FF01202FD55
:1048D00090A2EC124038121DA07856A6F008F6906F
:1048E00080E074D0F09000021240BAE47854F608E8
:1048F000F67854E6FE08E6FFC3785796EE18965011
:104900001690A2EC1240389000041240AB78550685
:10491000E61870DD0680DA12405A22A2AF9201C278
:10492000AFEE54F0FC7D00ED7003EC64906004EC9D
:10493000B4A00990A6B2EEF0A3EF802BC20090A025
:1049400000E0F974AAF0E0B4AA097455F0E0B45597
:1049500002D200AD01E9F090A6B230000474A78045
:10496000027497F0A37480F090A6B5EEF0A3EFF078
:10497000A20192AF2290A33A1244D5E490A341F051
:104980001249C712200790A33A1244CC1249C7E03B
:10499000F8A3E0F9A3E0FAA3E0FBC3121F906020A4
:1049A00090A341E0C39405501790A33A1244CC124F
:1049B0004F0D90A33D12200790A341E004F080C664
:1049C00090A33D1244BD22124F0D90A33D221240F0
:1049D0005A120267EFFD7C0090A2EAE0FF7E00120F
:1049E0001CD790A2E9E02FFFEC3EFE9080E0300063
:1049F000057490F080037440F09080E1EFF0EE9049
:104A000080E2F0E4FF90A2EBE0FEEFC39E500FA324
:104A10001240388F827583001240B20F80E7124037
:104A20005A2290A2EEEBF0A3EAF0A3E9F0120309F8
:104A30007F327E0012030F90A2EEE0F9A3E0FAA30A
:104A4000E0C912D8E77F04124A662440F9EA34012B
:104A500012D8E57F14124A662480F9EA340212D88B
:104A6000E57F24024AC1124AC190A2EEE0FBA3E016
:104A7000FAA3E022000B0B04050B070B0B060B0A35
:104A800008090B0001020306070C050D0E0F1000AC
:104A90000102030408090A0B1000010203040506C1
:104AA0000708090A0B01020410FFFFFF000000FFC6
:104AB000000000FF000000FFFFFF00FF00FF00FFFD
:104AC000FF90A332EAF0A3EBF090F00A7455F09057
:104AD00080E0EFF09080E1EDF0EC9080E2F0E4FF18
:104AE000FED390A333E09F90A332E09E401890A3A2
:104AF000341244CC8F828E83121C549080E3F00FCA
:104B0000BF00010E80DB90F00A7455F022C0E0C0B7
:104B100083C082C0D075D010908B54E0B4220B902B
:104B2000A6BFE0F58A90A6BE801730270B90A6C3DB
:104B3000E0F58A90A6C2800990A6C1E0F58A90A609
:104B4000C0E0F58CD28C784C06E618700106D0D007
:104B5000D082D083D0E03290F04D7422F0C2AF12F8
:104B60003D05EE90A171F01201E31201E97F0112FF
:104B700001EF1201F5D2AF1201FB1202011202077E
:104B800012020D90F00A7455F0120213120219125B
:104B9000021F90800FE060EBE4F0FF12022580E33B
:104BA0007B047D007C02E4FF120303E4FB7402FD3E
:104BB000FCE4FF120303E4FB7D1B124BE07D0512B6
:104BC0004BE07D1C7C02FF1203037B0F7DD27C0037
:104BD000E4FF1203037B107D727C01E4FF020303F8
:104BE0007C02FF120303E4FB229090267410F090E5
:104BF00090277420F09090287412F0909029741FE0
:104C0000F0908105E0B40B0F908104E0B4020890AD
:104C1000902A7437F0800D90902A7436F090902E80
:104C2000E04431F090902B74D9F090902C740FF0F8
:104C30002255AA66995352435C4D61747269782E6D
:104C4000632056657273696F6E20332E302E3030BC
:104C5000204465632030352032303132230010008B
:104C60000000000000001000000000000000100024
:104C700090A3311244D5E490A336F01244DE1244DE
:104C8000C912D90D90A334E06E7003A3E06F6015D4
:104C900090A336E0C39405500C1244C91244DEA31D
:104CA000E004F080D990A334E0FEA3E0FF2290A2BC
:104CB000EAEFF0A2AF9201C2AFE490A6B4F0EF2405
:104CC000DA70247A0079281235DB7A0079267D02A1
:104CD000123BDE90A6B6E02406123702B403089019
:104CE000A2EAE090A6B4F0A20192AF2290A2FD1237
:104CF000364E9202C2AF90A6B1E060031236CD905C
:104D0000055574AAF09002AA7455F090055574F2F6
:104D1000F08E838F82EBF0900555ECF09002AAEDB7
:104D2000F01236D5A20292AF2290A301EEF0A3EFCB
:104D3000F0A2AF9204C2AF90A6B1E060031236CDEC
:104D400012D87B90055574AAF09002AA7455F09081
:104D5000055574D7F08F828E837428F01236D5A251
:104D60000492AF22EF14600E14601614601724032F
:104D7000701D7B0780027B057D44124D90547FF0AF
:104D8000227B0780027B057D54124D904480F022E7
:104D90007C02E4FF120303909024E02290A2EE1222
:104DA000370F123728600EFFC4540F429090A2EEC6
:104DB00012369F800690A2EE12367790A2F1F0A3F1
:104DC000EFF090A2F11236C4E493121CA390A2F06B
:104DD000E0F5902255AA66995352435C4443522E03
:104DE000632056657273696F6E20332E302E30301B
:104DF00020446563203035203230313223002222B6
:104E00005390F822FFFFFFFF4390075390F922FFD2
:104E10004390075390FA22FF4390075390FB22FFE1
:104E20004390075390FC22FF4390075390FD22FFCD
:104E30004390075390FE22FF43900722062901D694
:104E400000BB0744040000057C02CB015806EE04B9
:104E50000000066203410190081204A801064D01FA
:104E6000DF00C0076C040000059C02DB016007172F
:104E70000400007847E6FE04540F086670037FFFC5
:104E800022C2AF74172EF582E434A5F583EFF078D3
:104E90004706E6D3940F4002E4F690A4DEE06004F7
:104EA000E4F0D299D2AF7F002264000A0A0005A084
:104EB0000EC82E0016A657000AE80B000E10004878
:104EC000004805BC05C807FF00020003000D8CC0A8
:104ED000001900640019006403E8E8A2AFE433FDA0
:104EE000C2AF90F067E0FC90F075E04401F090F004
:104EF000677405F0A37424F0E4FFFE124D29AF049B
:104F000090F067ECF0AF05EF24FF92AF2290A34240
:104F10001244D590A343E475F002121D7490A3428D
:104F20001244CC121C3BFFE4FCFDFE90A34612444D
:104F30005C12445C12200790A3461244BD22AD07C8
:104F4000E4FCAF05124E73EF6019E4FFFE0FBF00E3
:104F5000010EBE03F8BFE8F50CECD3940A40E3D28F
:104F60009980DF90F00A7455F0AF052201FFFF022F
:104F7000FFFF03FFFF04FFFF05FFFF06FFFF073FE3
:104F800000074100074300083F00084100084300B4
:104F900009FFFFA2AF9203C2AF7BFF7A0079FC1238
:104FA00035DD7A0079FA7D02123BDE90A6B6E02468
:104FB00003123702FFA20392AF22A2AF9204C2AF44
:104FC0007BFF7A00793B90A30512208190A308749F
:104FD0000BF07A0079297D12123BDEA20492AF22F7
:104FE000784BE6FE08E6FF7858A60608A60718E6FE
:104FF000FE08E6FF784C667003EE186670E2222227
:1050000000013B02BC0F6002032001C10280015E6F
:105010000280015E002200380C0C03010000017BBD
:1050200003530F4003034001BD0280015E02800173
:105030005E005100390C0C03040000013B02BC0F60
:105040006002032001C102800190028001900022D1
:1050500000200C0C03020000017B03530F400303EC
:105060004001BD0280019002800190005200260C98
:105070000C03050000013B02580F60020320020DE3
:10508000028001E0028001E00022001E0C0C0307F8
:105090000000015E029B0F40030360020D028001CD
:1050A000E0028001E0005100240C0C030900000123
:1050B0007B02D80F280303400208028001E002802F
:1050C00001E0007200190C0C030A0000017702EEE7
:1050D0000F4003034801F4028001E0028001E00078
:1050E0006A000D0C0C030B000001B103520F3803D2
:1050F000034001FD028001E0028001E00042001651
:105100000C0C030C0000013502400F200A03300292
:1051100019028001F4028001F4004200030C0C0328
:105120000D0000013B02BD0F6C02038401C102D0DF
:10513000019002D00190002800200C0C0303000015
:10514000017B03520F480203A801BE02D001900266
:10515000D00190005C00270C0C0306000001F10256
:10516000E90F40030480029B034002700340027079
:1051700000D0001A0C0C030E0000016002330F482F
:10518000020400027103200258032002580071003B
:10519000130C0C030F0000017B025B0F8004042042
:1051A00002740320025803200258004900140C0C1A
:1051B0000310000001E102D20F78060410029A03E6
:1051C00020025803200258003100140C0C03110077
:1051D0000001D502EE0F5003042002710320025893
:1051E00003200258009100120C0C03120000021957
:1051F00003530F40030418027703200258032002D0
:1052000058008900180C0C03130000013602580FD7
:10521000700804400205035001E0035001E0006102
:1052200000140C0C03140000012A02550F50050451
:105230002001F4035001E0035001E0005A00090C82
:105240000C03150000015E02BC0F5803043001F48A
:10525000035001E0035001E00061000D0C0C031647
:105260000000016902D00F5803044001F50350010A
:10527000E0035001E00069000E0C0C031700000170
:105280007902EC0F5005044001F8035001E003508F
:1052900001E0006A000D0C0C0318000001670257C2
:1052A0000F48070390025702D0024002D00240008C
:1052B00051000A0C0C03190000016303660FB002D1
:1052C00004F0019804000300040003000029001109
:1052D0000C0C031A010001E402580F880605400374
:1052E0002604000300040003000091001A0C0C03C4
:1052F0001B0000023502BD0F88060530032604009E
:105300000300040003000081001A0C0C031C0000C1
:10531000024102D00F700305500321040003000472
:105320000003000097001A0C0C031D000002580235
:10533000EE0F6003052003200400030004000300B7
:1053400000A000190C0C031E0000026302F80F609D
:1053500003055003230400030004000300009D0024
:105360001C0C0C0368000002AF03520F60030560C1
:105370000328040003000400030000BF00210C0CFC
:10538000031F000001C102580F700605D002EC0493
:105390008002D0048002D0009900100C0C03210080
:1053A00000021C02580F600305C8038404800360D8
:1053B0000480036000A000190C0C03690000027F48
:1053C00002BC0F600305C8039004800360048003DF
:1053D0006000B700290C0C0323000002A302EE0FAB
:1053E000800306400384048003600480036000EFB0
:1053F000001D0C0C032400000303034F0F78040668
:1054000010038E048003600480036000B600240C47
:105410000C0325000002AF02EF0F800305B00393D9
:105420000480036604800366008000240C0C0326BD
:105430000000026A02940F800405E003A9048003BF
:10544000840480038400B0001C0C0C0327000002BD
:10545000CD02F90F600805C003AF04800384048007
:10546000038400BF001E0C0C0328000001C2025878
:105470000F2805067202EE050002D0050002D000DA
:10548000CC00110C0C03220000023502EC0F800549
:1054900006A002F3050002D0050002D000C00018EB
:1054A0000C0C032A000001DA02580F200705A003A4
:1054B000160500030005000300004000090C0C0362
:1054C0002B000001DE02570F80070680031E050037
:1054D00003000500030000B100110C0C032C0000B8
:1054E000023502BD0F800706A00326050003000554
:1054F00000030000C500190C0C036A000002410201
:10550000D10F800706A0032005000300050003005B
:1055100000C5001A0C0C036B0000025B02ED0F804B
:105520000706A00325050003000500030000C000D6
:10553000180C0C032F000002AE03500F880706B0B2
:105540000329050003000500030000C8001C0C0C23
:105550000320000001ED02570F200605A0033705C8
:10556000000320050003200041000B0C0C03300059
:105570000001F102560F80060690033F050003204C
:105580000500032000B900150C0C033100000208CF
:1055900002710F480306A003410500032005000324
:1055A0002000C1001A0C0C03320000025902D00F77
:1055B000880306B00342050003200500032000C84D
:1055C000001B0C0C03330000027502EE0F80060670
:1055D000A00346050003200500032000C0001A0CAC
:1055E0000C0334000002CC03510F880606B0034BB5
:1055F000050003200500032000C8001F0C0C033524
:105600000000025802580F7003070803E805000362
:10561000C0050003C0012700210C0C033600000266
:10562000EE02EE0F9003069003E8050003C00500AC
:1056300003C000E000240C0C036E0000035B035267
:105640000FA00306C003F3050003C0050003C0005C
:10565000CD002C0C0C03370000028002580F7003A1
:105660000698042A050004000500040000E7002352
:105670000C0C0338000002CD02A00F70030660047A
:105680002B050004000500040000CF001E0C0C03D5
:105690006C000002ED02BB0FA00406A00430050060
:1056A00004000500040000CE00270C0C03390000A4
:1056B00002E802BC0F7005068E04280500040005F0
:1056C00000040000C6001F0C0C033A0000030B028C
:1056D000D00F880506C0043A050004000500040048
:1056E00000CE00310C0C033B0000032002EE0F64DF
:1056F000140698042A050004000500040000E600D2
:10570000230C0C033C0000032C02FA0F4008068017
:10571000042A05000400050004000110001D0C0C03
:10572000033D0000039003520FA00306C0043005A0
:105730000004000500040000CD00290C0C033E000D
:105740000001DD02580F70060700031B055003001F
:105750000550030000F0000F0C0C032D000001DDCC
:1057600002560F8F030700031E055603000556035C
:105770000000C600150C0C032E0000028702580F13
:105780002004061804380578041A0578041A003F26
:1057900000140C0C033F0000028D02580F90040708
:1057A0004804410578041A0578041A00D8001D0C35
:1057B0000C03410000033702ED0F90040768044B0F
:1057C0000578041A0578041A00E700270C0C034337
:1057D000000003AB03520F980407780451057804C6
:1057E0001A0578041A00EF002D0C0C034500000286
:1057F0002B02570F20060640039E05A0038405A038
:1058000003840040000E0C0C03460000022F0257D8
:105810000F9806077003A605A0038405A003840063
:10582000D800160C0C0348000002C202EE0F9806C6
:10583000079003AE05A0038405A0038400E8001EC2
:105840000C0C03290000022B02580F200506E00370
:105850009E0640038406400384003F000F0C0C03A7
:10586000470000026902570F200606E004050640C3
:1058700003E8064003E8003F00110C0C0349000058
:10588000026E02570FA8060850040E064003E806F1
:105890004003E800F7001A0C0C034A000003100252
:1058A000EC0FA80608700417064003E8064003E85A
:1058B000010500230C0C034B000002E402570F20EB
:1058C0000406E004D3064004B0064004B0003E00E5
:1058D0001A0C0C034C000002EE02580FC0040870B2
:1058E00004E2064004B0064004B0011D002B0C0C7D
:1058F000034E0000032D028A0FC003087004E20665
:105900004004B0064004B0011C002B0C0C034F00F7
:1059100000036B02BC0FC003087004E2064004B031
:10592000064004B0011C002B0C0C0350000003AA1D
:1059300002EE0FC003087004E2064004B006400403
:10594000B0011C002B0C0C03510000028702570F02
:105950002006073004380690041A0690041A003F07
:1059600000120C0C03400000028D02580FB0060814
:10597000C004410690041A0690041A0107001B0C8B
:105980000C03420000033702ED0FB00608E0044BA1
:105990000690041A0690041A011700250C0C034403
:1059A0000000031B02570FA8070870052F064005CB
:1059B0000006400500010500220C0C035200000205
:1059C0009A02570F200508200457078004380780E3
:1059D0000438004000130C0C0353000002A00258CE
:1059E0000FC8050A100460078004380780043801D6
:1059F00037001D0C0C0354000002A302580F2C05A5
:105A00000898046507800438078004380082002164
:105A10000C0C03570000026601F40F200608200456
:105A2000CD078004B0078004B0003E00110C0C03C9
:105A300055000002E402580F2006082004D3078016
:105A400004B0078004B0003D00170C0C034D0000AB
:105A500002EA02570FC8060A2004DD078004B007D7
:105A60008004B0013E00210C0C03560000013B02F3
:105A7000580F3E09035A020D02D001E002D001E0A6
:105A8000002E001B0C0C03080000013901F40F402C
:105A9000050360027102D0024002D00240003600CD
:105AA000240C0C03580000016802580F40050390B5
:105AB000025802D0024002D002400063000F0C0CDA
:105AC000036D0000017701F40F280507BC02EE0505
:105AD0000002D0050002D000CD00110C0C035900CB
